:020000040800F2
:100000000000022045100008951000089510000817
:1000100095100008951000089510000800000000D9
:100020000000000000000000000000009510000823
:1000300095100008000000009510000895100008B9
:1000400095100008951000089510000895100008FC
:1000500095100008951000089510000895100008EC
:1000600095100008951000089510000895100008DC
:1000700095100008951000089510000895100008CC
:1000800095100008951000089510000895100008BC
:1000900095100008951000089510000895100008AC
:1000A000951000089510000895100008951000089C
:1000B000951000089510000895100008951000088C
:1000C000951000089510000895100008951000087C
:1000D0009510000895100008D90400089510000834
:1000E000951000089510000895100008951000085C
:1000F000951000089510000895100008951000084C
:10010000951000089510000895100008951000083B
:10011000951000089510000895100008951000082B
:10012000951000089510000895100008951000081B
:10013000951000089510000895100008951000080B
:1001400095100008951000089510000895100008FB
:1001500095100008951000089510000895100008EB
:1001600095100008951000089510000895100008DB
:100170009510000895100008951000080000000078
:0801800095100008951000081D
:1001880010B5054C237833B9044B13B10448AFF3C9
:1001980000800123237010BD100000200000000023
:1001A800E010000808B5034B1BB103490348AFF33F
:1001B800008008BD0000000014000020E0100008C6
:1001C80053B94AB9002908BF00281CBF4FF0FF31B6
:1001D8004FF0FF3000F072B9ADF1080C6DE904CEB4
:1001E80000F006F8DDF804E0DDE9022304B070470A
:1001F8002DE9F047089E04468846002B4BD18A42D9
:10020800154667D9B2FA82F24AB1C2F1200701FA5B
:1002180002F320FA07F7954047EA030894404FEAAB
:10022800154E230CB8FBFEF71FFA85FC0EFB17884A
:1002380043EA084307FB0CF1994209D9EB1807F187
:10024800FF3080F01B81994240F21881023F2B4415
:100258005B1AA4B2B3FBFEF00EFB103344EA03446E
:1002680000FB0CFCA44509D92C1900F1FF3380F0E0
:100278000781A44540F2048102382C4440EA074033
:10028800A4EB0C0400271EB1D4400023C6E90043A8
:100298003946BDE8F0878B4209D9002E00F0EB8083
:1002A8000027C6E9000138463946BDE8F087B3FAA9
:1002B80083F7002F47D18B4202D3824200F2FA80A3
:1002C800841A61EB030301209846002EE0D0C6E9AA
:1002D8000048DDE702B9FFDEB2FA82F2002A40F0F8
:1002E8008F80491B4FEA154E1FFA85F80127B1FB8D
:1002F800FEFC230C0EFB1C1143EA014308FB0CF126
:10030800994207D9EB180CF1FF3002D2994200F25A
:10031800CD808446591AA3B2B1FBFEF00EFB10142F
:1003280043EA044408FB00F8A04507D92C1900F15A
:10033800FF3302D2A04500F2B6801846A4EB0804A9
:1003480040EA0C409FE7C7F1200CBB4022FA0CFEA4
:100358004EEA030E01FA07F420FA0CF521FA0CF321
:100368004FEA1E482543B3FBF8F92C0C08FB193358
:100378001FFA8EFA44EA034309FB0AF49C4202FA84
:1003880007F200FA07F10BD91EEB030309F1FF305E
:1003980080F087809C4240F28480A9F1020973446E
:1003A8001B1BADB2B3FBF8F008FB103345EA03445E
:1003B80000FB0AFAA24508D91EEB040400F1FF333A
:1003C8006BD2A24569D90238744440EA0940A0FBBF
:1003D8000289A4EB0A044C45C2464B4654D351D07B
:1003E800002E69D0B1EB0A0564EB030404FA0CFC97
:1003F800FD40FC404CEA0505C6E90054002747E7E4
:10040800C2F1200320FA03F7954001FA02F021FA1D
:1004180003F34FEA154E3843010CB3FBFEF71FFAFE
:1004280085F80EFB173341EA034107FB08F38B42BB
:1004380004FA02F407D9691807F1FF3C2FD28B425E
:100448002DD9023F2944CB1A81B2B3FBFEF00EFB33
:10045800103341EA034100FB08F38B4207D96918BE
:1004680000F1FF3C17D28B4215D902382944C91A2A
:1004780040EA07473BE73746304609E70746E7E6DD
:100488001846FBE64145ABD2B8EB020A69EB0E020F
:1004980001381346A4E76046E9E7184695E767463A
:1004A800D1E781467CE702382C4447E7ACF1020CDF
:1004B8002B442FE7384608E73746E9E6704700BF80
:1004C800034613F8012B002AFBD1181A013870478C
:1004D80008B5024800F016FD08BD00BF2C0000203A
:1004E80008B50848084B03604FF4E1334360002324
:1004F8008360C360036183610C23436100F0D5FB13
:1005080008BD00BF2C0000200044004030B583B077
:1005180000F0A4F8FFF7E4FF094B1D682846FFF731
:10052800CFFF084C4FF0FF3382B22946204600F037
:10053800EBFB01220DF10701204600F056FCFEE717
:10054800000000202C00002008B5032000F0A6F8C9
:100558000B4A536A43F4E0235362002211466FF0BA
:100568000B0000F0ADF8002211466FF00A0000F011
:10057800A7F8002211466FF0090000F0A1F808BDA5
:1005880000ED00E030B589B000240194184B1A6CD6
:1005980042F400321A641A6C02F400320192019A91
:1005A80002941A6B42F001021A631B6B03F00103F9
:1005B8000293029B042303930223049301230593CC
:1005C8000694072307930B4D03A9284600F0E4F887
:1005D8000823039303A9284600F0DEF8262000F03C
:1005E800A3F822460F21262000F06AF809B030BD92
:1005F8000038024000000240054BD3F8882042F43E
:100608007002C3F888204FF000629A60704700BFFC
:1006180000ED00E010B504460E4B18784FF47A73DD
:10062800B3FBF0F30C4A1068B0FBF3F000F08AF863
:1006380068B90F2C01D901200AE0002221464FF0A9
:10064800FF3000F03DF8034B5C60002000E0012023
:1006580010BD00BF080000200400002008B50B4BA7
:100668001A6842F400721A601A6842F480621A60CA
:100678001A6842F480721A60032000F00FF8002014
:10068800FFF7C8FFFFF760FF002008BD003C0240ED
:10069800014B1868704700BF6C000020074AD368F8
:1006A80023F4E0631B041B0C000200F4E060184311
:1006B80040F0BF6040F40030D060704700ED00E0CB
:1006C80030B4174BDB68C3F30223C3F10704042CCF
:1006D80028BF04241D1D062D18D9033B4FF0FF35F4
:1006E80005FA04F421EA0401994005FA03F322EA21
:1006F8000303194300280BDB0901C9B200F160406C
:1007080000F5614080F8001330BC70470023E5E72E
:1007180000F00F000901C9B2024B1954F4E700BFF9
:1007280000ED00E014ED00E0002807DB00F01F02F8
:10073800400901239340024A42F82030704700BF25
:1007480000E100E00138B0F1807F0AD2064B586022
:10075800064AF02182F823100020986007221A60C8
:1007680070470120704700BF10E000E000ED00E096
:1007780090F83530DBB2022B03D08023436501208B
:100788007047052380F835300268136823F00103A9
:10079800136000207047000000230F2B00F2D78061
:1007A800F0B583B039E0072200E00022AA403A43BE
:1007B8000234674D45F82420664A1468F24302EA79
:1007C80004054F6817F4803F01D046EA0405614CE0
:1007D8002560646802EA04054F6817F4003F01D0F9
:1007E80046EA04055B4C6560A46802EA04054F68A4
:1007F80017F4801F01D046EA0405564CA560E4684A
:1008080022404D6815F4001F01D046EA0402514CFD
:10081800E26001330F2B00F2988001229A400C68A5
:1008280004EA0206B242F4D14C68651E012D03D9D0
:10083800112C01D0122C12D185685F000324BC4012
:1008480025EA0405CC68BC402C438460456825EA49
:1008580002054C68C4F300129A402A434260C468F7
:100868005F000322BA40D24314408D68BD4025433F
:10087800C5604C68022C01D0122C13D1DD08083554
:1008880050F825E003F007044FEA840C0F2404FA1B
:100898000CF42EEA040E0C6904FA0CF444EA0E0473
:1008A80040F82540046822404C6804F00304BC402A
:1008B800224302604A6812F0805FAAD000220192A7
:1008C800254A546C44F480445464526C02F48042C7
:1008D8000192019A9C08A51C1D4A52F8257003F044
:1008E800030295000F22AA4027EA02071B4A9042FA
:1008F8003FF45BAF02F5806290421AD002F5806245
:10090800904218D002F58062904216D002F58062BB
:10091800904214D002F58062904212D002F58062B3
:10092800904210D002F5806290423FF43CAF08221A
:100938003CE701223AE7022238E7032236E704229D
:1009480034E7052232E7062230E703B0F0BD7047EE
:1009580000380140003C01400038024000000240DD
:10096800014B1868704700BF0400002008B5FFF766
:10097800F7FF044B9B68C3F38223034AD35CD84038
:1009880008BD00BF003802400811000808B5FFF78D
:10099800E7FF044B9B68C3F34233034AD35CD84058
:1009A80008BD00BF00380240081100080268D3687B
:1009B80023F49073D3600268536923F001035361F1
:1009C800202380F83A30704790F83930DBB2212B79
:1009D8002AD18368B3F5805F16D0036A5A1C026275
:1009E8001A7803685A60C38C013B9BB2C384EBB985
:1009F8000268D36823F08003D3600268D36843F0A9
:100A08004003D36000207047036A1B880268C3F361
:100A18000803536003691BB9036A02330362E2E700
:100A2800036A01330362DEE7022070470020704743
:100A38002DE9F04B04460268136923F44053C1685A
:100A48000B43136183680269134342691343C26904
:100A58001A430168CB6823F4164323F00C031343AD
:100A6800CB600268536923F4407381690B43536177
:100A7800C369B3F5004F3BD00368714A934200F055
:100A8800AB8002F58062934200F0A680FFF76EFF0C
:100A98004FF00009061849EB090716EB000B47EB66
:100AA800090C4FEACC0343EA5B734FEACB02934647
:100AB8009C4663689A009B0F10EB0B0049EB0C01F6
:100AC800FFF77EFB5F4DA5FB00325109642202FB54
:100AD800110213013233A5FB03235B0903F0F00273
:100AE80002EB011203F00F03216813448B60A4E0AA
:100AF8000368534A934239D002F58062934235D055
:100B0800FFF734FF83464FF0000C06184CEB0C0738
:100B180016EB000847EB0C094FEAC90343EA587380
:100B28004FEAC8029046994662680021921841EB44
:100B380001031BEB08004CEB0901FFF741FB414D9A
:100B4800A5FB00325109642202FB1102D3003233A3
:100B5800A5FB03235B095A0002F4F87202EB0112A9
:100B680003F00703216813448B6066E0FFF70EFF6C
:100B780080464FF00009061849EB090716EB000BF1
:100B880047EB090C4FEACC0343EA5B734FEACB020D
:100B980093469C4662680021921841EB010318EBCA
:100BA8000B0049EB0C01FFF70BFB264DA5FB0032B0
:100BB8005109642202FB1102D3003233A5FB03233F
:100BC8005B095A0002F4F87202EB011203F0070302
:100BD800216813448B6030E0FFF7D8FE4FF000091E
:100BE800061849EB090716EB000B47EB090C4FEA0F
:100BF800CC0343EA5B734FEACB0293469C46636897
:100C08009A009B0F10EB0B0049EB0C01FFF7D8FA89
:100C18000C4DA5FB00325109642202FB110213019D
:100C28003233A5FB03235B0903F0F00202EB011248
:100C380003F00F03216813448B60BDE8F08B00BFFD
:100C4800001001401F85EB512DE9F04105460F4684
:100C580016469846069C2B681B6837EA03030CBFA8
:100C680001230023B3421DD1B4F1FF3FF3D02CB1CF
:100C7800FFF70EFDA0EB0800A042ECD92A68D36864
:100C880023F4D073D3602A68536923F001035361B6
:100C9800202385F8393085F83A30002385F8383034
:100CA800032000E00020BDE8F08158B310B50446E9
:100CB80090F839300BB3242384F839302268D3688C
:100CC80023F40053D3602046FFF7B2FE226813696D
:100CD80023F4904313612268536923F02A03536174
:100CE8002268D36843F40053D3600020E0632023D4
:100CF80084F8393084F83A3010BD80F83830FFF77E
:100D080041FCD8E7012070472DE9F04383B01E4627
:100D180090F83930DBB2202B56D104460D46904668
:100D2800002956D0002A56D090F83830012B54D0DC
:100D3800012380F838304FF00009C0F83C90212397
:100D480080F83930FFF7A4FC0746A4F82480A4F8FB
:100D5800268084F8389010E000963B4600228021D7
:100D68002046FFF771FF002839D12B882268C3F38A
:100D7800080353602369C3B90235E38C9BB2B3B14E
:100D8800E38C013B9BB2E384A368B3F5805FE3D0B7
:100D980000963B46002280212046FFF755FF00BB06
:100DA8002A7823685A600135E7E70135E5E70096B8
:100DB8003B46002240212046FFF746FF034690B9F4
:100DC800202284F8392000E00223184603B0BDE849
:100DD800F0830123F9E70123F7E70223F5E703236B
:100DE800F3E70323F1E70323EFE790F83A30DBB2A8
:100DF800202B20D109B312B390F83830012B20D022
:100E080081628285C2850023C363222280F83A204A
:100E180080F838300168CA6842F48072CA60016894
:100E28004A6942F001024A610168CA6842F0200238
:100E3800CA60184670470220704701207047012099
:100E4800704702207047704708B50168CB6823F0E7
:100E58004003CB60202380F83930FFF7F4FF0020EF
:100E680008BD704708B590F83A30DBB2222B45D15F
:100E78008368B3F5805F0ED0036903BB03685A68C3
:100E8800836A591C81621A70C38D013B9BB2C3856A
:100E9800F3B1002033E0826A036943B903685B68F1
:100EA800C3F308031380836A02338362ECE70368A1
:100EB8005B68DBB21380836A01338362E4E703680B
:100EC8005B68826A511C816203F07F031370DBE761
:100ED8000268D36823F02003D3600268D36823F440
:100EE8008073D3600268536923F0010353612023A0
:100EF80080F83A30FFF7B5FF002000E0022008BD77
:100F08007047000010B5044602681368D16852693A
:100F180013F00F0005D113F0200F02D011F0200FAD
:100F280056D100286AD012F0010202D111F4907F44
:100F380064D013F0010F06D011F4807F03D0E06B6A
:100F480040F00100E06313F0040F04D01AB1E06B25
:100F580040F00200E06313F0020F04D01AB1E06B16
:100F680040F00400E06313F0080F07D011F0200FE1
:100F780000D11AB1E26B42F00802E263E26B002A88
:100F880048D013F0200F02D011F0200F24D123688D
:100F98005B6903F04003E26B12F0080F00D13BB32A
:100FA8002046FFF703FD23685A6912F0400F1BD053
:100FB8005A6922F040025A61636B8BB11A4A1A656A
:100FC800606BFFF7D5FB28B3606B036D984721E092
:100FD8002046FFF747FF1DE02046FFF743FFD6E70F
:100FE8002046FFF78DFF15E02046FFF789FF11E047
:100FF8002046FFF785FF0023E3630BE013F0800F23
:1010080002D011F0800F06D113F0400F02D011F07A
:10101800400F04D110BD2046FFF7D6FCFAE7204662
:10102800FFF712FFF6E700BF3510000808B5806B20
:101038000023C385C384FFF763FF08BDDFF834D0FE
:10104800002103E00C4B5B58435004310B480C4B18
:1010580042189A42F6D30B4A02E0002342F8043BB6
:10106800094B9A42F9D3FFF7C7FA00F011F8FFF7D6
:101078004DFA7047000002204011000800000020CF
:10108800100000201000002070000020FEE7000083
:1010980070B50D4E0D4CA41BA4100025A54209D116
:1010A8000B4E0C4C00F018F8A41BA4100025A54208
:1010B80005D170BD56F8253098470135EEE756F84A
:1010C800253098470135F2E7381100083811000833
:1010D800381100083C110008F8B500BFF8BC08BC7E
:1010E8009E467047F8B500BFF8BC08BC9E467047DE
:1010F80000000000000000000102030406070809C0
:101108000000000001020304546865206170706CDF
:1011180069636174696F6E2069732072756E6E6998
:081128006E67200D0A000000B3
:08113000C8F0FF7F0100000080
:04113800AD010008FD
:04113C00890100081D
:10114000101100080024F40001000000100000004D
:04000005080010459A
:00000001FF
