:020000040800F2
:100000000000022011160008CD070008CF070008E5
:10001000D1070008D3070008D5070008000000003A
:10002000000000000000000000000000D7070008EA
:10003000D907000800000000DB070008DD07000802
:1000400061160008611600086116000861160008B4
:1000500061160008611600086116000861160008A4
:100060006116000861160008611600086116000894
:100070006116000861160008611600086116000884
:100080006116000861160008611600086116000874
:100090006116000861160008611600086116000864
:1000A0006116000861160008611600086116000854
:1000B0006116000861160008611600086116000844
:1000C0006116000861160008611600086116000834
:1000D0006116000861160008611600086116000824
:1000E0006116000861160008611600086116000814
:1000F0006116000861160008611600086116000804
:1001000061160008611600086116000861160008F3
:1001100061160008611600086116000861160008E3
:1001200061160008611600086116000861160008D3
:1001300061160008000000000000000061160008C1
:1001400061160008611600086116000861160008B3
:1001500061160008611600086116000861160008A3
:100160006116000861160008611600086116000893
:100170006116000861160008611600080000000002
:1001800000000000611600080000000000000000F0
:100190006116000800000000000000006116000861
:1001A00000000000000000000000000061160008D0
:1001B0006116000861160008611600086116000843
:0401C00061160008BC
:1001C40010B5054C237833B9044B13B10448AFF38D
:1001D40000800123237010BD0C00002000000000EB
:1001E400BC16000808B5034B1BB103490348AFF321
:1001F400008008BD0000000010000020BC160008AC
:1002040053B94AB9002908BF00281CBF4FF0FF3179
:100214004FF0FF3000F072B9ADF1080C6DE904CE77
:1002240000F006F8DDF804E0DDE9022304B07047CD
:100234002DE9F047089E04468846002B4BD18A429C
:10024400154667D9B2FA82F24AB1C2F1200701FA1F
:1002540002F320FA07F7954047EA030894404FEA6F
:10026400154E230CB8FBFEF71FFA85FC0EFB17880E
:1002740043EA084307FB0CF1994209D9EB1807F14B
:10028400FF3080F01B81994240F21881023F2B44D9
:100294005B1AA4B2B3FBFEF00EFB103344EA034432
:1002A40000FB0CFCA44509D92C1900F1FF3380F0A4
:1002B4000781A44540F2048102382C4440EA0740F7
:1002C400A4EB0C0400271EB1D4400023C6E900436C
:1002D4003946BDE8F0878B4209D9002E00F0EB8047
:1002E4000027C6E9000138463946BDE8F087B3FA6D
:1002F40083F7002F47D18B4202D3824200F2FA8067
:10030400841A61EB030301209846002EE0D0C6E96D
:100314000048DDE702B9FFDEB2FA82F2002A40F0BB
:100324008F80491B4FEA154E1FFA85F80127B1FB50
:10033400FEFC230C0EFB1C1143EA014308FB0CF1E9
:10034400994207D9EB180CF1FF3002D2994200F21E
:10035400CD808446591AA3B2B1FBFEF00EFB1014F3
:1003640043EA044408FB00F8A04507D92C1900F11E
:10037400FF3302D2A04500F2B6801846A4EB08046D
:1003840040EA0C409FE7C7F1200CBB4022FA0CFE68
:100394004EEA030E01FA07F420FA0CF521FA0CF3E5
:1003A4004FEA1E482543B3FBF8F92C0C08FB19331C
:1003B4001FFA8EFA44EA034309FB0AF49C4202FA48
:1003C40007F200FA07F10BD91EEB030309F1FF3022
:1003D40080F087809C4240F28480A9F10209734432
:1003E4001B1BADB2B3FBF8F008FB103345EA034422
:1003F40000FB0AFAA24508D91EEB040400F1FF33FE
:100404006BD2A24569D90238744440EA0940A0FB82
:100414000289A4EB0A044C45C2464B4654D351D03E
:10042400002E69D0B1EB0A0564EB030404FA0CFC5A
:10043400FD40FC404CEA0505C6E90054002747E7A7
:10044400C2F1200320FA03F7954001FA02F021FAE1
:1004540003F34FEA154E3843010CB3FBFEF71FFAC2
:1004640085F80EFB173341EA034107FB08F38B427F
:1004740004FA02F407D9691807F1FF3C2FD28B4222
:100484002DD9023F2944CB1A81B2B3FBFEF00EFBF7
:10049400103341EA034100FB08F38B4207D9691882
:1004A40000F1FF3C17D28B4215D902382944C91AEE
:1004B40040EA07473BE73746304609E70746E7E6A1
:1004C4001846FBE64145ABD2B8EB020A69EB0E02D3
:1004D40001381346A4E76046E9E7184695E76746FE
:1004E400D1E781467CE702382C4447E7ACF1020CA3
:1004F4002B442FE7384608E73746E9E6704700BF44
:1005040030B58BB00024059406940794089409949C
:100514000194224B1A6B42F004021A631A6B02F024
:1005240004020192019A02941A6B42F080021A6347
:100534001A6B02F080020292029A03941A6B42F040
:1005440001021A631A6B02F001020392039A0494E3
:100554001A6B42F002021A631B6B03F0020304934A
:10056400049B0F4D22462021284600F0D1FA4FF477
:10057400005305930B4B0693079405A90A4800F012
:10058400E9F920230593012306930794089405A908
:10059400284600F0DFF90BB030BD00BF0038024040
:1005A40000000240000021100008024072B6FEE77D
:1005B40000B583B00023009301930D480D4A0260F7
:1005C400436083604FF6FF72C260836100F084FE73
:1005D40050B90023009301936946054800F096FE44
:1005E40020B903B05DF804FBFFF7E0FFFFF7DEFF7F
:1005F400280000200010004008B50A480A4B036098
:100604004FF4E133436000238360C36003610C2231
:1006140042618361C36100F0C9FF00B908BDFFF7FF
:10062400C5FF00BF680000200044004000B595B03D
:100634003422002107A801F037F800230293039322
:1006440004930593069300931F4A116C41F0805163
:100654001164126C02F080520092009A01931B49BB
:100664000A6822F4404242F480420A600A6802F4B2
:1006740040420192019A0222079201210A9110211B
:100684000B910D920E930F914FF4A87310930423C2
:1006940011931292139207A800F0D8FB80B90F238C
:1006A400029302210391002304934FF48052059294
:1006B400069302A800F032FA20B915B05DF804FBE5
:1006C400FFF774FFFFF772FF00380240007000402C
:1006D40008B500F0B7F8FFF7A9FFFFF711FFFFF720
:1006E40067FFFFF789FFFEE700B583B000210091A3
:1006F4000C4B5A6C42F480425A645A6C02F48042A5
:100704000092009A01911A6C42F080521A641B6C98
:1007140003F080530193019B072000F0BFF803B05E
:100724005DF804FB003802400268094B9A4200D08D
:10073400704782B000230193064B1A6C42F01002FA
:100744001A641B6C03F010030193019B02B0704701
:10075400001000400038024000B589B00023039324
:1007640004930593069307930268154B9A4202D0AB
:1007740009B05DF804FB0021019103F5FA331A6C0A
:1007840042F400321A641A6C02F400320192019AA3
:1007940002911A6B42F001021A631B6B03F001030E
:1007A4000293029B0C2303930223049303230693D3
:1007B4000723079303A9034800F0CCF8D8E700BF48
:1007C4000044004000000240FEE7FEE7FEE7FEE7CB
:1007D400FEE770477047704708B500F04DF808BD54
:1007E400054BD3F8882042F47002C3F888204FF0F8
:1007F40000629A60704700BF00ED00E010B5044647
:100804000E4B18784FF47A73B3FBF0F30C4A10686C
:10081400B0FBF3F000F088F868B90F2C01D901207F
:100824000AE0002221464FF0FF3000F049F8034B64
:100834005C60002000E0012010BD00BF0400002027
:100844000000002008B50B4B1A6842F400721A60CD
:100854001A6842F480621A601A6842F480721A605C
:10086400032000F01BF80020FFF7C8FFFFF73CFF50
:10087400002008BD003C0240034A1168034B1B786A
:100884000B441360704700BFA80000200400002040
:10089400014B1868704700BFA8000020074AD368BE
:1008A40023F4E0631B041B0C000200F4E060184313
:1008B40040F0BF6040F40030D060704700ED00E0CD
:1008C40030B4174BDB68C3F30223C3F10704042CD1
:1008D40028BF04241D1D062D18D9033B4FF0FF35F6
:1008E40005FA04F421EA0401994005FA03F322EA23
:1008F4000303194300280BDB0901C9B200F160406E
:1009040000F5614080F8001330BC70470023E5E730
:1009140000F00F000901C9B2024B1954F4E700BFFB
:1009240000ED00E014ED00E00138B0F1807F0AD260
:10093400064B5860064AF02182F823100020986084
:1009440007221A6070470120704700BF10E000E0E2
:1009540000ED00E000230F2B00F2D180F0B583B04E
:1009640039E0062200E00022AA403A430234644DF2
:1009740045F82420634A1468F24302EA04054F68E8
:1009840017F4803F01D046EA04055E4C2560646894
:1009940002EA04054F6817F4003F01D046EA040553
:1009A400584C6560A46802EA04054F6817F4801F78
:1009B40001D046EA0405534CA560E46822404D6822
:1009C40015F4001F01D046EA04024E4CE2600133E4
:1009D4000F2B00F2928001229A400C6804EA02066E
:1009E400B242F4D14C68651E012D03D9112C01D0FB
:1009F400122C12D185685F000324BC4025EA04054B
:100A0400CC68BC402C438460456825EA02054C68E8
:100A1400C4F300129A402A434260C4685F00032270
:100A2400BA40D24314408D68BD402543C5604C682C
:100A3400022C01D0122C13D1DD08083550F825E022
:100A440003F007044FEA840C0F2404FA0CF42EEA92
:100A5400040E0C6904FA0CF444EA0E0440F8254030
:100A6400046822404C6804F00304BC402243026042
:100A74004A6812F0805FAAD000220192224A546C84
:100A840044F480445464526C02F480420192019A0A
:100A94009C08A51C1A4A52F8257003F0030295001D
:100AA4000F22AA4027EA0207184A90423FF45BAF9C
:100AB40002F58062904216D002F58062904214D012
:100AC40002F58062904212D002F58062904210D00A
:100AD40002F5806290420ED002F5806290423FF4AB
:100AE40040AF072240E701223EE702223CE703220F
:100AF4003AE7042238E7052236E703B0F0BD704731
:100B040000380140003C014000380240000002402F
:100B140012B909048161704781617047002800F0AF
:100B24009E8070B50446504B1B6803F00F038B4244
:100B340009D2CBB24C4A1370136803F00F038B42F3
:100B440001D0012070BD236813F0020F17D013F0F9
:100B5400040F04D0454A936843F4E0539360236838
:100B640013F0080F04D0414A936843F46043936040
:100B74003E4A936823F0F003A068034393600D4654
:100B8400236813F0010F32D06368012B21D09A1E21
:100B9400012A25D9354A126812F0020F61D033496F
:100BA4008A6822F0030213438B60FFF771FE064646
:100BB4002E4B9B6803F00C036268B3EB820F16D0D4
:100BC400FFF766FE801B41F288339842F0D9032078
:100BD400B8E7264A126812F4003FE0D10120B1E7D9
:100BE400224A126812F0007FD9D10120AAE71E4BD5
:100BF4001B6803F00F03AB4209D9EAB21A4B1A700F
:100C04001B6803F00F03AB4201D001209AE723686D
:100C140013F0040F06D0154A936823F4E053E168F7
:100C24000B439360236813F0080F07D00F4A9368AF
:100C340023F46043216943EAC103936000F044F85C
:100C44000A4B9B68C3F30313094AD35CD840094B8E
:100C54001860094B1868FFF7D1FD002072E70120E6
:100C6400704701206EE700BF003C0240003802409C
:100C7400D41600080000002008000020014B18686A
:100C8400704700BF0000002008B5FFF7F7FF044BD2
:100C94009B68C3F38223034AD35CD84008BD00BFDA
:100CA40000380240E416000808B5FFF7E7FF044BDC
:100CB4009B68C3F34233034AD35CD84008BD00BFEA
:100CC40000380240E41600082DE9F04B5C4B9B68A9
:100CD40003F00C03082B07D00C2B5BD0042B00F083
:100CE400AD805848BDE8F08B554B5A6802F03F027E
:100CF4005B6813F4800F2AD0514B5B68C3F38813ED
:100D04001E4600275C010025E41A65EB0705A901CE
:100D140041EA9461A001001B61EB0501CB0043EAA9
:100D24005073C400A01943EB07014B0243EAD053AC
:100D34004402204619460023FFF762FA404B5B68E1
:100D4400C3F3014301335B00B0FBF3F0CAE73C4B50
:100D54005B68C3F388131E4600275C010025E41A70
:100D640065EB0705A90141EA9461A001001B61EB51
:100D74000501CB0043EA5073C400A01943EB0701FB
:100D84008B0243EA90538402204619460023FFF75E
:100D940037FAD3E72A4B5A6802F03F025B6813F430
:100DA400800F28D0264B5B68C3F388131E460027A8
:100DB4005C010025E41A65EB0705A90141EA946189
:100DC400A001001B61EB0501CB0043EA5073C40092
:100DD400A01943EB07014B0243EAD05344022046D7
:100DE40019460023FFF70CFA154B5B68C3F3027333
:100DF400B0FBF3F076E7124B5B68C3F388131E462F
:100E040000275C010025E41A65EB0705A90141EA06
:100E14009461A001001B61EB0501CB0043EA507310
:100E2400C400A01943EB07018B0243EA90538402E8
:100E3400204619460023FFF7E3F9D5E7024851E7B6
:100E4400003802400024F40000127A0070B582B029
:100E54000446036813F0010F41D0A64B9B6803F0CE
:100E64000C03042B32D0A34B9B6803F00C03082B18
:100E740027D0A04B9B6803F00C030C2B59D063685C
:100E8400B3F5803F5BD0B3F5A02F5ED0994B1A68C1
:100E940022F480321A601A6822F480221A6063688D
:100EA400002B5CD0FFF7F4FC0546924B1B6813F44F
:100EB400003F14D1FFF7ECFC401B6428F5D9032054
:100EC4009DE18C4B5B6813F4800FD2D0894B1B6877
:100ED40013F4003F03D06368002B00F08D81236876
:100EE40013F0020F67D0834B9B6813F00C0F4AD0AA
:100EF400804B9B6803F00C03082B3FD07D4B9B6811
:100F040003F00C030C2B48D0E368002B74D07A4B0D
:100F140001221A60FFF7BCFC0546764B1B6813F0F0
:100F2400020F60D1FFF7B4FC401B0228F5D903205F
:100F340065E1704B5B6813F4800FA0D0C6E76D4A7F
:100F4400136843F480331360A9E76A4B1A6842F4C8
:100F540080221A601A6842F480321A609FE7FFF711
:100F640097FC0546634B1B6813F4003FB7D0FFF7AB
:100F74008FFC401B6428F5D9032040E15D4B5B687E
:100F840013F4800FBAD15B4B1B6813F0020F0AD025
:100F9400E368012B07D0012031E1564B5B6813F461
:100FA400800FB1D1EFE7534A136823F0F8032169A6
:100FB40043EAC1031360236813F0080F40D0636948
:100FC40063B34E4B01221A60FFF762FC0546494B9E
:100FD4005B6F13F0020F33D1FFF75AFC401B02285A
:100FE400F5D903200BE1434A136823F0F803216980
:100FF40043EAC1031360DEE73F4B00221A60FFF7A8
:1010040047FC05463B4B1B6813F0020FD3D0FFF798
:101014003FFC401B0228F5D90320F0E0374B0022A7
:101024001A60FFF735FC0546324B5B6F13F0020F75
:1010340006D0FFF72DFC401B0228F5D90320DEE083
:10104400236813F0040F79D02A4B1B6C13F0805FD4
:1010540033D100230193274B1A6C42F080521A6457
:101064001B6C03F080530193019B0125244B1B68E7
:1010740013F4807F23D0A368012B34D0052B41D0F7
:101084001C4B1A6F22F001021A671A6F22F0040235
:101094001A67A368002B3FD0FFF7FAFB0646154BEF
:1010A4001B6F13F0020F48D1FFF7F2FB801B41F2D4
:1010B40088339842F3D90320A1E00025D6E7104AEB
:1010C400136843F480731360FFF7E2FB06460C4B8E
:1010D4001B6813F4807FCED1FFF7DAFB801B022854
:1010E400F5D903208BE0034A136F43F00103136720
:1010F400CFE700BF0038024000004742800E47425D
:1011040000700040404B1A6F42F004021A671A6FD5
:1011140042F001021A67BCE7FFF7BAFB06463A4BF6
:101124001B6F13F0020F08D0FFF7B2FB801B41F2D4
:1011340088339842F3D9032061E0E5B9A369002B11
:101144005CD0314A926802F00C02082A59D0022B72
:1011540017D02E4B00221A60FFF79AFB04462A4B45
:101164001B6813F0007F45D0FFF792FB001B022899
:10117400F5D9032043E0244A136C23F0805313640D
:10118400DCE7224B00221A60FFF782FB05461E4B68
:101194001B6813F0007F06D0FFF77AFB401B022880
:1011A400F5D903202BE0E369226A1343626A43EA18
:1011B4008213A26A5208013A43EA0243E26A43EA0A
:1011C4000263226B43EA02730F4A53600F4B0122FE
:1011D4001A60FFF75DFB04460B4B1B6813F0007F9E
:1011E40006D1FFF755FB001B0228F5D9032006E0C2
:1011F400002004E0002002E0012000E0002002B012
:1012040070BD0120FBE700BF003802406000474288
:101214000368304A904212D0B0F1804F0FD0A2F54B
:101224007C4290420BD002F58062904207D002F5D6
:101234008062904203D002F57842904203D123F0B9
:1012440070034A681343234A90422AD0B0F1804F76
:1012540027D0A2F57C42904223D002F580629042CE
:101264001FD002F5806290421BD002F57842904272
:1012740017D002F57052904213D002F5806290426A
:101284000FD002F5806290420BD0A2F598329042C2
:1012940007D002F58062904203D002F5806290424A
:1012A40003D123F44073CA68134323F080034A69CB
:1012B400134303608B68C3620B688362054B9842D7
:1012C40003D003F58063984201D10B6903630123C2
:1012D4004361704700000140A8B110B5044690F87E
:1012E4003D305BB1022384F83D30211D2068FFF7B7
:1012F4008FFF012384F83D30002010BD80F83C307E
:10130400FFF712FAEEE701207047000090F83C3036
:10131400012B3BD030B4012380F83C30022380F809
:101324003D3003685C689D6824F070040A682243B9
:101334005A600368164A93421AD0B3F1804F17D00B
:10134400A2F57C42934213D002F5806293420FD0FF
:1013540002F5806293420BD002F57842934207D0A3
:1013640002F57052934203D0A2F59432934204D111
:1013740025F080054A6815439D60012380F83D30BF
:10138400002380F83C30184630BC70470220704778
:10139400000001402DE9F04B04460268136923F470
:1013A4004053C1680B431361836802691343426964
:1013B4001343C2691A430168CB6823F4164323F02C
:1013C4000C031343CB600268536923F440738169AF
:1013D4000B435361C369B3F5004F3BD00368714AB3
:1013E400934200F0AB8002F58062934200F0A68045
:1013F400FFF74AFC4FF00009061849EB090716EB02
:10140400000B47EB090C4FEACC0343EA5B734FEA4A
:10141400CB0293469C4663689A009B0F10EB0B002B
:1014240049EB0C01FEF7ECFE5F4DA5FB00325109C0
:10143400642202FB110213013233A5FB03235B096F
:1014440003F0F00202EB011203F00F0321681344CE
:101454008B60A4E00368534A934239D002F580625A
:10146400934235D0FFF710FC83464FF0000C06186A
:101474004CEB0C0716EB000847EB0C094FEAC903C9
:1014840043EA58734FEAC8029046994662680021BD
:10149400921841EB01031BEB08004CEB0901FEF72A
:1014A400AFFE414DA5FB00325109642202FB11023B
:1014B400D3003233A5FB03235B095A0002F4F8720C
:1014C40002EB011203F00703216813448B6066E00A
:1014D400FFF7EAFB80464FF00009061849EB0907BD
:1014E40016EB000B47EB090C4FEACC0343EA5B73A2
:1014F4004FEACB0293469C4662680021921841EB66
:10150400010318EB0B0049EB0C01FEF779FE264DA5
:10151400A5FB00325109642202FB1102D3003233CD
:10152400A5FB03235B095A0002F4F87202EB0112D3
:1015340003F00703216813448B6030E0FFF7B4FB2A
:101544004FF00009061849EB090716EB000B47EBAF
:10155400090C4FEACC0343EA5B734FEACB02934690
:101564009C4663689A009B0F10EB0B0049EB0C013F
:10157400FEF746FE0C4DA5FB00325109642202FB26
:10158400110213013233A5FB03235B0903F0F002BC
:1015940002EB011203F00F03216813448B60BDE8D2
:1015A400F08B00BF001001401F85EB5158B310B5FC
:1015B400044690F839300BB3242384F83930226878
:1015C400D36823F40053D3602046FFF7E3FE226878
:1015D400136923F4904313612268536923F02A03A7
:1015E40053612268D36843F40053D3600020E0635E
:1015F400202384F8393084F83A3010BD80F838302C
:10160400FFF7AAF8D8E7012070470000DFF834D0CC
:10161400002103E00C4B5B58435004310B480C4B46
:1016240042189A42F6D30B4A02E0002342F8043BE4
:10163400094B9A42F9D3FFF7D3F800F011F8FFF7FA
:1016440047F8704700000220FC1600080000002044
:101654000C0000200C000020AC000020FEE700007D
:1016640070B50D4E0D4CA41BA4100025A54209D144
:101674000B4E0C4C00F020F8A41BA4100025A5422E
:1016840005D170BD56F8253098470135EEE756F878
:10169400253098470135F2E7F4160008F4160008DF
:1016A400F4160008F816000802440346934200D1D9
:1016B400704703F8011BF9E7F8B500BFF8BC08BC94
:1016C4009E467047F8B500BFF8BC08BC9E467047FC
:1016D40000000000000000000102030406070809DE
:0816E4000000000001020304F4
:0816EC0048EBFF7F0100000044
:0416F400E901000800
:0416F800C501000820
:0C16FC000024F4000100000010000000B9
:0400000508001611C8
:00000001FF
